{
  "_format": "hh-sol-artifact-1",
  "contractName": "Staking",
  "sourceName": "contracts/Staking.sol",
  "abi": [
    {
      "inputs": [
        {
          "internalType": "address",
          "name": "stakingToken",
          "type": "address"
        },
        {
          "internalType": "address",
          "name": "rewardsToken",
          "type": "address"
        }
      ],
      "stateMutability": "nonpayable",
      "type": "constructor"
    },
    {
      "inputs": [],
      "name": "NeedsMoreThanZero",
      "type": "error"
    },
    {
      "inputs": [],
      "name": "TransferFailed",
      "type": "error"
    },
    {
      "anonymous": false,
      "inputs": [
        {
          "indexed": true,
          "internalType": "address",
          "name": "user",
          "type": "address"
        },
        {
          "indexed": true,
          "internalType": "uint256",
          "name": "amount",
          "type": "uint256"
        }
      ],
      "name": "RewardsClaimed",
      "type": "event"
    },
    {
      "anonymous": false,
      "inputs": [
        {
          "indexed": true,
          "internalType": "address",
          "name": "user",
          "type": "address"
        },
        {
          "indexed": true,
          "internalType": "uint256",
          "name": "amount",
          "type": "uint256"
        }
      ],
      "name": "Staked",
      "type": "event"
    },
    {
      "anonymous": false,
      "inputs": [
        {
          "indexed": true,
          "internalType": "address",
          "name": "user",
          "type": "address"
        },
        {
          "indexed": true,
          "internalType": "uint256",
          "name": "amount",
          "type": "uint256"
        }
      ],
      "name": "WithdrewStake",
      "type": "event"
    },
    {
      "inputs": [],
      "name": "REWARD_RATE",
      "outputs": [
        {
          "internalType": "uint256",
          "name": "",
          "type": "uint256"
        }
      ],
      "stateMutability": "view",
      "type": "function"
    },
    {
      "inputs": [],
      "name": "claimReward",
      "outputs": [],
      "stateMutability": "nonpayable",
      "type": "function"
    },
    {
      "inputs": [
        {
          "internalType": "address",
          "name": "account",
          "type": "address"
        }
      ],
      "name": "earned",
      "outputs": [
        {
          "internalType": "uint256",
          "name": "",
          "type": "uint256"
        }
      ],
      "stateMutability": "view",
      "type": "function"
    },
    {
      "inputs": [],
      "name": "rewardPerToken",
      "outputs": [
        {
          "internalType": "uint256",
          "name": "",
          "type": "uint256"
        }
      ],
      "stateMutability": "view",
      "type": "function"
    },
    {
      "inputs": [],
      "name": "s_lastUpdateTime",
      "outputs": [
        {
          "internalType": "uint256",
          "name": "",
          "type": "uint256"
        }
      ],
      "stateMutability": "view",
      "type": "function"
    },
    {
      "inputs": [],
      "name": "s_rewardPerTokenStored",
      "outputs": [
        {
          "internalType": "uint256",
          "name": "",
          "type": "uint256"
        }
      ],
      "stateMutability": "view",
      "type": "function"
    },
    {
      "inputs": [
        {
          "internalType": "address",
          "name": "",
          "type": "address"
        }
      ],
      "name": "s_rewards",
      "outputs": [
        {
          "internalType": "uint256",
          "name": "",
          "type": "uint256"
        }
      ],
      "stateMutability": "view",
      "type": "function"
    },
    {
      "inputs": [],
      "name": "s_rewardsToken",
      "outputs": [
        {
          "internalType": "contract IERC20",
          "name": "",
          "type": "address"
        }
      ],
      "stateMutability": "view",
      "type": "function"
    },
    {
      "inputs": [],
      "name": "s_stakingToken",
      "outputs": [
        {
          "internalType": "contract IERC20",
          "name": "",
          "type": "address"
        }
      ],
      "stateMutability": "view",
      "type": "function"
    },
    {
      "inputs": [
        {
          "internalType": "address",
          "name": "",
          "type": "address"
        }
      ],
      "name": "s_userRewardPerTokenPaid",
      "outputs": [
        {
          "internalType": "uint256",
          "name": "",
          "type": "uint256"
        }
      ],
      "stateMutability": "view",
      "type": "function"
    },
    {
      "inputs": [
        {
          "internalType": "uint256",
          "name": "amount",
          "type": "uint256"
        }
      ],
      "name": "stake",
      "outputs": [],
      "stateMutability": "nonpayable",
      "type": "function"
    },
    {
      "inputs": [
        {
          "internalType": "uint256",
          "name": "amount",
          "type": "uint256"
        }
      ],
      "name": "withdraw",
      "outputs": [],
      "stateMutability": "nonpayable",
      "type": "function"
    }
  ],
  "bytecode": "0x60806040523480156200001157600080fd5b50604051620010df380380620010df8339818101604052810190620000379190620000d7565b81600160006101000a81548173ffffffffffffffffffffffffffffffffffffffff021916908373ffffffffffffffffffffffffffffffffffffffff160217905550806000806101000a81548173ffffffffffffffffffffffffffffffffffffffff021916908373ffffffffffffffffffffffffffffffffffffffff160217905550505062000171565b600081519050620000d18162000157565b92915050565b60008060408385031215620000f157620000f062000152565b5b60006200010185828601620000c0565b92505060206200011485828601620000c0565b9150509250929050565b60006200012b8262000132565b9050919050565b600073ffffffffffffffffffffffffffffffffffffffff82169050919050565b600080fd5b62000162816200011e565b81146200016e57600080fd5b50565b610f5e80620001816000396000f3fe608060405234801561001057600080fd5b50600436106100b35760003560e01c8063a694fc3a11610071578063a694fc3a1461017c578063adca9b7214610198578063b88a802f146101b6578063bea08151146101c0578063cd3daf9d146101f0578063f245ace41461020e576100b3565b80628cc262146100b85780630bd21c56146100e85780632e1a7d4d14610106578063304ac91b146101225780635997bb37146101405780636aa0838f1461015e575b600080fd5b6100d260048036038101906100cd9190610ba3565b61023e565b6040516100df9190610cd2565b60405180910390f35b6100f0610340565b6040516100fd9190610cb7565b60405180910390f35b610120600480360381019061011b9190610bfd565b610364565b005b61012a6105ae565b6040516101379190610cd2565b60405180910390f35b6101486105b4565b6040516101559190610cd2565b60405180910390f35b6101666105b9565b6040516101739190610cd2565b60405180910390f35b61019660048036038101906101919190610bfd565b6105bf565b005b6101a0610848565b6040516101ad9190610cb7565b60405180910390f35b6101be61086e565b005b6101da60048036038101906101d59190610ba3565b610ad1565b6040516101e79190610cd2565b60405180910390f35b6101f8610ae9565b6040516102059190610cd2565b60405180910390f35b61022860048036038101906102239190610ba3565b610b4c565b6040516102359190610cd2565b60405180910390f35b6000600560008373ffffffffffffffffffffffffffffffffffffffff1673ffffffffffffffffffffffffffffffffffffffff16815260200190815260200160002054670de0b6b3a7640000600460008573ffffffffffffffffffffffffffffffffffffffff1673ffffffffffffffffffffffffffffffffffffffff168152602001908152602001600020546102d1610ae9565b6102db9190610dce565b600760008673ffffffffffffffffffffffffffffffffffffffff1673ffffffffffffffffffffffffffffffffffffffff168152602001908152602001600020546103259190610d74565b61032f9190610d43565b6103399190610ced565b9050919050565b60008054906101000a900473ffffffffffffffffffffffffffffffffffffffff1681565b3361036d610ae9565b600381905550426002819055506103838161023e565b600560008373ffffffffffffffffffffffffffffffffffffffff1673ffffffffffffffffffffffffffffffffffffffff16815260200190815260200160002081905550600354600460008373ffffffffffffffffffffffffffffffffffffffff1673ffffffffffffffffffffffffffffffffffffffff16815260200190815260200160002081905550816006600082825461041e9190610dce565b9250508190555081600760003373ffffffffffffffffffffffffffffffffffffffff1673ffffffffffffffffffffffffffffffffffffffff16815260200190815260200160002060008282546104749190610dce565b92505081905550813373ffffffffffffffffffffffffffffffffffffffff167f4cb6da433ea55f6e302b7bdbfeed740816a42301cde7f5bac5dff2b34037637460405160405180910390a36000600160009054906101000a900473ffffffffffffffffffffffffffffffffffffffff1673ffffffffffffffffffffffffffffffffffffffff1663a9059cbb33856040518363ffffffff1660e01b815260040161051e929190610c8e565b602060405180830381600087803b15801561053857600080fd5b505af115801561054c573d6000803e3d6000fd5b505050506040513d601f19601f820116820180604052508101906105709190610bd0565b9050806105a9576040517f90b8ec1800000000000000000000000000000000000000000000000000000000815260040160405180910390fd5b505050565b60035481565b606481565b60025481565b336105c8610ae9565b600381905550426002819055506105de8161023e565b600560008373ffffffffffffffffffffffffffffffffffffffff1673ffffffffffffffffffffffffffffffffffffffff16815260200190815260200160002081905550600354600460008373ffffffffffffffffffffffffffffffffffffffff1673ffffffffffffffffffffffffffffffffffffffff168152602001908152602001600020819055508160008114156106a3576040517ff45911f000000000000000000000000000000000000000000000000000000000815260040160405180910390fd5b82600660008282546106b59190610ced565b9250508190555082600760003373ffffffffffffffffffffffffffffffffffffffff1673ffffffffffffffffffffffffffffffffffffffff168152602001908152602001600020600082825461070b9190610ced565b92505081905550823373ffffffffffffffffffffffffffffffffffffffff167f9e71bc8eea02a63969f509818f2dafb9254532904319f9dbda79b67bd34a5f3d60405160405180910390a36000600160009054906101000a900473ffffffffffffffffffffffffffffffffffffffff1673ffffffffffffffffffffffffffffffffffffffff166323b872dd3330876040518463ffffffff1660e01b81526004016107b793929190610c57565b602060405180830381600087803b1580156107d157600080fd5b505af11580156107e5573d6000803e3d6000fd5b505050506040513d601f19601f820116820180604052508101906108099190610bd0565b905080610842576040517f90b8ec1800000000000000000000000000000000000000000000000000000000815260040160405180910390fd5b50505050565b600160009054906101000a900473ffffffffffffffffffffffffffffffffffffffff1681565b33610877610ae9565b6003819055504260028190555061088d8161023e565b600560008373ffffffffffffffffffffffffffffffffffffffff1673ffffffffffffffffffffffffffffffffffffffff16815260200190815260200160002081905550600354600460008373ffffffffffffffffffffffffffffffffffffffff1673ffffffffffffffffffffffffffffffffffffffff168152602001908152602001600020819055506000600560003373ffffffffffffffffffffffffffffffffffffffff1673ffffffffffffffffffffffffffffffffffffffff1681526020019081526020016000205490506000600560003373ffffffffffffffffffffffffffffffffffffffff1673ffffffffffffffffffffffffffffffffffffffff16815260200190815260200160002081905550803373ffffffffffffffffffffffffffffffffffffffff167ffc30cddea38e2bf4d6ea7d3f9ed3b6ad7f176419f4963bd81318067a4aee73fe60405160405180910390a360008060009054906101000a900473ffffffffffffffffffffffffffffffffffffffff1673ffffffffffffffffffffffffffffffffffffffff1663a9059cbb33846040518363ffffffff1660e01b8152600401610a41929190610c8e565b602060405180830381600087803b158015610a5b57600080fd5b505af1158015610a6f573d6000803e3d6000fd5b505050506040513d601f19601f82011682018060405250810190610a939190610bd0565b905080610acc576040517f90b8ec1800000000000000000000000000000000000000000000000000000000815260040160405180910390fd5b505050565b60056020528060005260406000206000915090505481565b6000806006541415610aff576003549050610b49565b600654670de0b6b3a7640000606460025442610b1b9190610dce565b610b259190610d74565b610b2f9190610d74565b610b399190610d43565b600354610b469190610ced565b90505b90565b60046020528060005260406000206000915090505481565b600081359050610b7381610ee3565b92915050565b600081519050610b8881610efa565b92915050565b600081359050610b9d81610f11565b92915050565b600060208284031215610bb957610bb8610ede565b5b6000610bc784828501610b64565b91505092915050565b600060208284031215610be657610be5610ede565b5b6000610bf484828501610b79565b91505092915050565b600060208284031215610c1357610c12610ede565b5b6000610c2184828501610b8e565b91505092915050565b610c3381610e02565b82525050565b610c4281610e4a565b82525050565b610c5181610e40565b82525050565b6000606082019050610c6c6000830186610c2a565b610c796020830185610c2a565b610c866040830184610c48565b949350505050565b6000604082019050610ca36000830185610c2a565b610cb06020830184610c48565b9392505050565b6000602082019050610ccc6000830184610c39565b92915050565b6000602082019050610ce76000830184610c48565b92915050565b6000610cf882610e40565b9150610d0383610e40565b9250827fffffffffffffffffffffffffffffffffffffffffffffffffffffffffffffffff03821115610d3857610d37610e80565b5b828201905092915050565b6000610d4e82610e40565b9150610d5983610e40565b925082610d6957610d68610eaf565b5b828204905092915050565b6000610d7f82610e40565b9150610d8a83610e40565b9250817fffffffffffffffffffffffffffffffffffffffffffffffffffffffffffffffff0483118215151615610dc357610dc2610e80565b5b828202905092915050565b6000610dd982610e40565b9150610de483610e40565b925082821015610df757610df6610e80565b5b828203905092915050565b6000610e0d82610e20565b9050919050565b60008115159050919050565b600073ffffffffffffffffffffffffffffffffffffffff82169050919050565b6000819050919050565b6000610e5582610e5c565b9050919050565b6000610e6782610e6e565b9050919050565b6000610e7982610e20565b9050919050565b7f4e487b7100000000000000000000000000000000000000000000000000000000600052601160045260246000fd5b7f4e487b7100000000000000000000000000000000000000000000000000000000600052601260045260246000fd5b600080fd5b610eec81610e02565b8114610ef757600080fd5b50565b610f0381610e14565b8114610f0e57600080fd5b50565b610f1a81610e40565b8114610f2557600080fd5b5056fea2646970667358221220675263b9ab29eee8b7081e1da03fb9fbb1d772ef8a81e26217851296a5517c6164736f6c63430008070033",
  "linkReferences": {},
  "deployedLinkReferences": {}
}